:020000021000EC
:1000000000000420C98B0100018C01004D6F01002C
:10001000058C0100596F01005F6F010000000000B6
:100020000000000000000000000000004D1E010064
:100030000D8C010000000000E71E0100F71E01000A
:1000400021C40100E5420100138C0100138C010062
:10005000138C0100138C0100138C0100138C010020
:10006000138C0100138C0100138C0100138C010010
:10007000138C0100B5C50100138C0100FD42010085
:10008000138C0100138C0100138C0100138C0100F0
:10009000138C0100138C0100138C0100138C0100E0
:1000A000138C0100138C0100138C0100138C0100D0
:1000B000138C0100138C0100000000000000000000
:1000C000138C0100138C0100138C0100138C0100B0
:1000D000138C0100138C0100138C0100138C0100A0
:1000E000138C0100138C0100138C01000000000030
:1000F00000000000138C010000000000138C0100C0
:1001000010B5054C237833B9044B13B10448AFF351
:1001100000800123237010BDE80F002000000000C4
:100120006C3C020008B5034B1BB103490348AFF315
:10013000008008BD00000000EC0F00206C3C0200B5
:10014000154B002B08BF134B9D46A3F5803A0021A9
:100150008B460F461348144A121A0EF081FB0F4BC0
:10016000002B00D098470E4B002B00D09847002062
:10017000002104000D000D48002802D00C4807F0B3
:1001800081FC0DF07BFE2000290003F0DFFE07F06C
:1001900076FC00BF00000800000004200000000002
:1001A000A93E0100E80F002010B00020857A010070
:1001B000000000000A220121014801F026BD00BF15
:1001C0003C110020704730B5A1F11004002500F06B
:1001D0000F02D3B2092ACCBF373330338B73CD73C0
:1001E00002398C424FEA1010F1D130BD2220704705
:1001F00030B5012185B0192001F0C2FD012119207F
:1002000001F0FCFD4FF080430022C3F85C2503F5AC
:1002100088334FF48032C3F848230121C3F8082300
:10022000212001F0ADFD0121202001F0A9FD0121D7
:10023000212001F0E3FD0121202001F0DFFD104B22
:1002400001221A600F4A1368002BFCD00E4B0024C9
:10025000C3F80045C3F800450C4B0FCB6D4685E84D
:100260000F00234620464FF0FF3155F8232001337D
:10027000042BC2F80005C2F86015F6D105B030BDF8
:10028000042000404421004000200040101E0200D5
:1002900038B54FF0805504462146D5F8A800FFF741
:1002A00092FFD5F8A40004F11001FFF78CFF202085
:1002B00038BD000072B64FF08043B022C3F81C2551
:1002C000BFF34F8F0549064BCA6802F4E06213433F
:1002D000CB60BFF34F8F00BFFDE700BF00ED00E034
:1002E0000400FA0570470B6803604B6843608B6835
:1002F00083607047C3680BB19B6818477047002044
:10030000704770B590F8343105461446F3B9036868
:10031000DB69984704F47063B3F5407F04F0F003A1
:100320000CBF0721082104F00F02302B0CBF022361
:100330000123012A08D0901E42424241A869BDE82B
:100340007040006804F04AB90222F7E770BD10B5AA
:1003500090F8343104462BB9A369186804F096F973
:100360000028F9D010BD38B590F834510446A5B92D
:1003700083695BB1186848B10368DB689847A36973
:100380001D600421A06907F099FDA5610023C4F850
:100390002431C4F82831C4F82C3138BD13B590F895
:1003A000343104466BBBA369186804F02FF940B3DD
:1003B00007F02EF8A3691868036801225B690DF144
:1003C00007019847D4F82C31B3F5807F16D0D4F8C4
:1003D0002C31B3F5807F11D0D4F824319DF807205B
:1003E000234483F82420D4F824310133DBB2C4F849
:1003F0002431D4F82C310133C4F82C3107F01EF825
:10040000D1E702B010BD00007FB590F8343104464A
:100410000D46002B34D1866926B9042007F038FD3B
:10042000A0610660A369186860BB4FF4867007F08E
:100430002FFD2B4694F9212094F92010064604F054
:10044000CBFBA3691E6094F92220531C06D0A0693F
:1004500094F923300068032104F0CEFBA3691868E7
:1004600070B10A4B03930022094B01936946009433
:10047000029204F028F9039B13B19B6868469847E1
:1004800004B070BD294604F095F8DCE7201E020098
:100490009D03010010B4D0E9013401686210E40743
:1004A00001EB020048BF8A585DF8044B48BFD3589F
:1004B0001847000008B590F834313BB1012001F035
:1004C00005FC0648BDE8084001F028BA82691AB167
:1004D0001368003318BF0123184608BD0818002010
:1004E00070B504460D4601F019FA30B1236829466B
:1004F00020461B6CBDE87040184770BDA0F5A07089
:10050000EEE7000013B590F834318DF8071004467B
:100510002BB1C9B20B48FFF7E3FF02B010BDA369CE
:10052000186804F0B3F80028F9D0A36918680368C4
:1005300001221B690DF107019847013018BF012006
:10054000EBE700BF081800202DE9F0410746884678
:10055000164601F0E3F970B10024A6420CD9351B10
:10056000402D28BF402508EB04012A46384600F0FC
:10057000BBFE2C44F1E704462046BDE8F081A0F51F
:10058000A070E1E770B590F8343105460E46144688
:100590002BB11048FFF7D8FF0446204670BDAB6969
:1005A000186804F073F80028F9D0AB691868D0F81F
:1005B000083101211B6B00F584709847AB691868FE
:1005C000036822461B6931469847013008BF002462
:1005D000E3E700BF0818002030B50446C3B001F0BF
:1005E00017F9D4F85832C3F5807398420546C4BF52
:1005F000D4F85852C5F580752A4601AB02A92046A9
:1006000000F05CFF019902AB6D1A00221D44D4F882
:100610005832B3F5807F19D08A4217D0D4F85832B7
:10062000B3F5807F10D0D4F85032A85C234483F80F
:100630005001D4F850320133DBB2C4F85032D4F850
:1006400058320133C4F858320132E0E743B030BDCC
:1006500038B5044600F0F0FA2046FFF7BDFFD4F8A5
:100660005852204600F0F0FA284638BDA0F5A07098
:10067000EEE7000010B590F8343104462BB106487F
:10068000FFF7E6FF0446204610BD06F0C1FED4F891
:100690002C4106F0D3FEF6E70818002038B50446D2
:1006A00000F0CAFA2046FFF797FFD4F858324BB152
:1006B000D4F85432234493F85051204600F0C4FA41
:1006C000284638BD4FF0FF35F7E7A0F5A070E5E705
:1006D00010B590F8343104462BB10B48FFF7DEFF1C
:1006E0000446204610BD06F093FED4F82C313BB1F1
:1006F000D4F82801044494F8244006F09FFEF0E763
:100700004FF0FF34F9E700BF0818002038B5044661
:1007100000F092FA2046FFF75FFFD4F85832A3B1F9
:10072000D4F85432234493F85051D4F8543201335E
:10073000DBB2C4F85432D4F85832013BC4F8583212
:10074000204600F081FA284638BD4FF0FF35F7E724
:10075000A0F5A070DAE7000010B590F83431044637
:100760002BB11148FFF7D2FF0446204610BD06F01A
:100770004FFED4F82C319BB1D4F82831234493F8A0
:100780002400D4F828310133DBB2C4F82831D4F87E
:100790002C31013BC4F82C31044606F04FFEE4E74F
:1007A0004FF0FF34F9E700BF0818002008B54FF4F8
:1007B000807200210EF054F80022C0F80021C0F829
:1007C0000421C0F8082108BD2DE9F047194C1A4F43
:1007D000276000254FF47A78C4E90158202604F1F7
:1007E0002400C4E90565E5614FF00109FFF7DEFF6C
:1007F000284684F8349101F03DFA8246484601F0DB
:1008000039FA0E4CFF2384F82100C4E9015804F1A1
:1008100024002760C4E90565E56184F820A084F818
:10082000223084F82330FFF7C1FF84F83451BDE84B
:10083000F08700BF3C110020341E0200041000208D
:10084000002070477047704710B5D0F88C452CB128
:10085000236820465B689847A468F8E710BD38B560
:10086000D0F88C450D4634B1236820469B68294654
:100870009847A468F7E738BD00487047F41E0200A7
:1008800010B5054B0360044605F0ADFC204605F0AD
:10089000C3FC204610BD00BF741E020010B5044604
:1008A000FFF7EEFF20464FF4B26107F007FB20464A
:1008B00010BDF7B5D0F88C4505460E460023A4B10F
:1008C00023683146DF680DF1030201AB2046B847CB
:1008D0009DF803100429034605D0019A284604F028
:1008E000DFFE03B0F0BDA468E9E7019A9DF80310AC
:1008F000F4E770B505460E4622B10021BDE8704010
:1009000004F0DABCD0F88C455CB1236800221B6986
:1009100031462046984710B101212846EEE7A468E9
:10092000F2E72146F9E770B5D0F88C450E4605464A
:1009300000213CB12368314620465B699847A46892
:100940000146F6E72846BDE8704004F0A9BDF8B5B9
:10095000D0F88C4505460E4617463CB12368204624
:100960009B693A4631469847A468F6E72846012134
:10097000BDE8F84004F0F2BD70B5002186B0044631
:1009800005F08AF80023ADF8063023898DF8103081
:100990001B0AA188E2888DF811304FF4897540F266
:1009A0000123ADF80450ADF81230022540F20313D4
:1009B000EF268DF807508DF809508DF80C100125A1
:1009C000090A8DF80E20ADF81430120A04F10A035A
:1009D0008DF808608DF80A508DF80B008DF80D1019
:1009E0008DF80F2001AD05AE1C462A4603CAB2425F
:1009F00018605960154603F10803F6D112881A8071
:100A0000204606B070BDF8B5002406460D462746C0
:100A100030460EF0F5FAA04207D9335D05F81430E0
:100A200005EB440301345F70F2E7400000F0FE0084
:100A3000F8BD38B5D0F88C55044635B12B6828463A
:100A40001B6A984710B9AD68F7E7284640F20233B1
:100A5000A4F8483504F24A51FFF7D5FF94F8483519
:100A6000184484F8480504F5A96038BD40F2023303
:100A700010B500F20A510446A0F808350548FFF702
:100A8000C2FF94F80835184484F8080504F5A160FD
:100A900010BD00BF601E020040F2023310B50446D4
:100AA000A0F8C83400F2CA40FFF7F2FB94F8C8344B
:100AB000184484F8C80404F5996010BD2DE9FF417D
:100AC00000238DF80A3090F888351B4A8DF80830DD
:100AD000012301928DF809303222C0238DF80B30AA
:100AE0008DF80C2001AB044600F54E7803CBC4F81A
:100AF0003803C8F8041088F80820D4F88C65092554
:100B00008EB1336800211B6830469847478805F549
:100B10004E73093F00F109013A46E0180DF0A2FDBD
:100B20003D44B668ECE784F83A5340462D1284F809
:100B30003B5304B0BDE8F0810902FFFF73B50446E2
:100B40000D46164607F0F0FE4FF480730093014601
:100B500033462A46204604F065FF024B23602046B8
:100B600002B070BD741E020010B5D0F88C3504467A
:100B7000A3B9C0F88C1594F888350B7194F88835B2
:100B80004A79134484F888350B6808465B6A9847AD
:100B9000238918442081012010BD13469A68002A39
:100BA000FBD19960E7E71FB5044604F035FF014625
:100BB000684604F0DDF84021684604F04BF9D4F8AB
:100BC0008C4534B123682046DB6969469847A468A0
:100BD000F7E7684604F0D3F804B010BD10B504463A
:100BE000FFF7E1FF2046BDE8104004F086BE00009C
:100BF00010B50D4C2378BFF35B8FDB0712D4204672
:100C000006F04EFF70B148F25A0242F241310748F5
:100C1000FFF794FF204606F065FF054A05490348A3
:100C200006F02BFF014810BD74120020781200203E
:100C3000000200208108010010B5FFF7D9FF03680A
:100C4000BDE810405B6F184710B5FFF7D1FF036890
:100C5000BDE810409B6F184710B5FFF7C9FF036848
:100C6000BDE81040DB6F184704F006BA04F01ABA6A
:100C700004F0F2B9704770477047436A93F8780000
:100C80007047D0F824017047012070470048704732
:100C90004C2002002DE9F04F044697B00F464B223E
:100CA000002103A80DF0DCFDD4F82431267994F856
:100CB0000EA094F80C90002B06F10105637B0193C4
:100CC00014BF05200020EDB2002F40F0978040F2C5
:100CD0000923ADF80C304FF48173ADF81030802348
:100CE0008DF8133032238DF8143008238DF8153029
:100CF0000B2301218DF816308DF8250040F20223D8
:100D000042F205404FF0240C4FF0090E04274B220D
:100D1000ADF818308DF8211002238DF82410ADF8AD
:100D200026004FF0100805208DF82A108DF82D10A0
:100D30008DF82F104FF0030B06218DF80E208DF843
:100D400017608DF81A308DF81DE08DF81F608DF852
:100D500022308DF823308DF82B008DF82CC08DF8C3
:100D600031C08DF832308DF833108DF834008DF8A5
:100D700035C08DF81E708DF829808DF82EB08DF855
:100D800030708DF8361007218DF839108DF8491024
:100D900044F20201ADF84C1040F20751ADF850108A
:100DA0001D349DF804108DF837608DF838508DF89B
:100DB0003A008DF842508DF84A008DF852108DF8A7
:100DC000533044F20306402340F6022503A920468F
:100DD0008DF83BA0ADF83C608DF83F808DF840E089
:100DE0008DF84170ADF844508DF84B908DF854302B
:100DF0000DF038FC204617B0BDE8F08F0020FAE770
:100E000038B505460A4B45F8D03B0446FFF7F0FEDF
:100E100005F0E9F9284604F0B7F804F17C0004F085
:100E2000B3F804F1700004F0AFF8204638BD00BFFD
:100E30000C20020010B50446FFF7E2FF20464FF4F5
:100E4000947107F03BF8204610BDFFF705BF000086
:100E500010B5034B0360044603F012FF204610BD9B
:100E60003C1F020010B50446FFF7F2FF2046282180
:100E700007F024F8204610BD10B5034B036004466C
:100E800003F0FEFE204610BD0C1F020010B5044604
:100E9000FFF7F2FF2046342107F010F8204610BD7E
:100EA00010B5034B0360044603F0EAFE204610BD74
:100EB000241F020010B50446FFF7F2FF2046382138
:100EC00006F0FCFF204610BD38B51C4B0D461968D6
:100ED000C0F80F1099889B7943750446A0F8131049
:100EE00040220221284603F0ABFF4022207302215A
:100EF000284603F0AAFF402260730321284603F02E
:100F00009FFFA073284603F03BFF20B9AF220C4996
:100F10000C4806F0CDF9002304F18502C4E9322320
:100F200004F1D90284F8783084F8843084F8D83019
:100F3000C4F81C21C4F8203138BD00BF581F02007E
:100F4000E61F0200F11F02002DE9F34104460E46A0
:100F50001546FFF781FEF28823799A4237D1002D9A
:100F600035D17778012F2ED1F378202B27D13289F4
:100F7000072A24D104F10F0804F11605294640463A
:100F80000DF03EFBD0B1D4F81630C4F80F30207C01
:100F9000E17B638BA4F8133001EB0021607CE57CDE
:100FA000237F009501EB00412568A07C637501EB70
:100FB0000061237D627D6D6B2046A8473D46F37836
:100FC000212B08BF0125284602B0BDE8F08100258D
:100FD000F9E710B50446FFF73FFEFFF709FE217B56
:100FE00004F09EFF04F18503C4F8C8300023C4F860
:100FF000CC3084F8843004F17C0003F07AFF94F85C
:1010000084302BB923682046DB6BBDE810401847BD
:1010100010BD000070B50446FFF71EFED4F8205145
:101020002DB140F2DD120F490F4806F041F904F1ED
:10103000D903C4F81C31FFF7DBFD617B04F0CEFE61
:1010400084F8D850C4F8200104F1D00003F051FF17
:1010500094F8D8302BB9236820469B6BBDE87040CC
:10106000184770BDE61F0200641F020010B4D0E9EB
:10107000013401686210E40701EB020048BF8A589E
:101080005DF8044B48BFD35818470000F0B504463C
:1010900087B002ADFFF7E0FD0026FFF7A9FDA17BB9
:1010A000009503234022059604F040FC2846FFF7F4
:1010B00021F9FFF79DFD164B217B164F009540222D
:1010C000CDE9033602230597029404F02FFC28464D
:1010D000FFF710F9FFF78CFD0F4B617B0095402265
:1010E000CDE9033602230597029404F01FFC28463D
:1010F000FFF700F9FFF77CFD4023D4F81C21617B4A
:1011000004F00EFE012084F8D80007B0F0BD00BF47
:10111000D30F01004C1F02001510010038B5022347
:101120004371002383600C4B044640F8703B154626
:1011300003F0D2FE04F17C0003F0CEFE04F1D000F7
:1011400003F0CAFEC4F82451FFF752FD2146FFF711
:101150000BFD204638BD00BF0C20020070B50446D0
:101160000D46FFF779FD84F87850002D3ED194F8B4
:10117000843033B1FFF73CFD217B04F0A9FC84F8F7
:10118000845004F1850304F17C0600253046C4F840
:10119000C830C4F8CC5003F0ACFE304603F0A2FED9
:1011A00028B9154915484FF4A27206F081F894F851
:1011B000D83033B1FFF71CFD217B04F089FC84F8A3
:1011C000D85004F1D903C4F81C3104F1D005002330
:1011D0002846C4F8203103F08CFE284603F082FE36
:1011E00020B94FF4A77204490548DEE704F1700006
:1011F000BDE8704003F07DBEE61F0200721F0200D2
:10120000831F020010B50446FFF726FD204600218B
:10121000BDE81040FFF7A2BF38B50D460446FFF702
:101220001BFD042D05D020460021BDE83840FFF706
:1012300095BF38BDF8B5164604460D461F46FFF764
:101240000BFD04233370EA8823799A4225D169780B
:10125000012922D1EA78212A08D0222A0BD0202A7B
:101260004FF000001BD13070163401E031700F34A4
:101270003C600720F8BDAB8813F0010308BF194696
:101280002046FFF76BFFAB8803F00103E366AB88F2
:1012900003F00203A366022333700020EAE703236E
:1012A0003370E7E710B58AB00446FFF7C5FC68461F
:1012B00003F0DAFC0A4B0093694604F170000994CC
:1012C00003F02FFE2046FFF7BFFC064B00211A68F3
:1012D000684603F013FD6846FFF7BAFD0AB010BD7B
:1012E0003C1F0200601F020070B58EB01546044618
:1012F0000E46FFF7A1FC01A803F0B6FC0E4B0C95BF
:1013000001A9002504F17C000193CDE90A468DF87E
:10131000345003F006FE2046FFF796FC074B2946A3
:101320001A6801A803F0EAFC01A89DF83440FFF711
:10133000A3FD20460EB070BD0C1F0200601F02000E
:1013400010B50446FFF788FC94F884307BB9D4F8D4
:10135000CC3063B1FFF74CFCD4F8CC30217B04F1E6
:10136000850204F07BFD10B1012384F8843010BDA8
:101370002DE9F8431E460446894690469DF82070A4
:10138000FFF75AFC0023336094F87830E3B194F807
:101390008430CBB9D4F8CC50C5F14005454528BFC1
:1013A0004546B8F1000F05D02A464946D4F8C80092
:1013B0000DF058F9D4F8CC302B44C4F8CC3035605B
:1013C00017B12046FFF7BCFF2046BDE8F843FFF702
:1013D0003BBCF0B50446406A90F8785085B00126D1
:1013E0002DB984F830503546284605B0F0BD04AB21
:1013F000002743F8047DD4E90A120096FFF7B8FFEE
:101400000399E36AA26A5B1A0A44E362A26213B90F
:1014100084F83060E8E7606AFFF792FF3D46E3E753
:101420002DE9F0431C4691B0904606468946FFF7E9
:1014300003FC002C08BF01AC4FF00005256002A89A
:101440000CBF0127002703F00FFC104B029302A9E9
:1014500006F1D000CDE90D84CDE90B698DF83C7023
:101460008DF83D5003F05DFD3046FFF7EDFB084B76
:1014700029461A6802A803F041FC02A89DF83D40E5
:10148000FFF70EFD204611B0BDE8F083241F0200D7
:10149000601F020010B5D0F8203104466BB990F8F7
:1014A000D83053B9FFF7A4FB402304F1D902617B84
:1014B00004F036FC012384F8D83010BD70B51E4608
:1014C00004460023336094F878300846EBB194F872
:1014D000D830D3B9D4F82051D4F81C11954228BF84
:1014E00015462A460DF0BEF83560D4F81C31D4F804
:1014F00020212B44551BC4F81C31C4F8205125B9B8
:101500002046BDE87040FFF7C5BF70BD37B5044643
:10151000406A90F878502DB984F835500125284656
:1015200003B030BD02AB002243F8042DD4E90A1207
:10153000FFF7C4FF0199A26A0A44A262226B1368F2
:101540000B441360E36A01995B1A94F83410E36268
:1015500009B9126802B91BB9012384F83530DEE7F6
:10156000606AFFF797FF0025D9E76FF01500704715
:1015700000290CBF6FF01800002070470120704751
:101580006FF0150070476FF015007047112070471D
:1015900070477047704703689B6C1847A0F5A070B0
:1015A000F9E770477047704770470368184710B5F0
:1015B0000446012000F08AFB94F8780010BDA0F5E5
:1015C000A070F4E738B54FF0FF320123FF210B483C
:1015D0000B4D06F0EBFD00F067FB044695F8783004
:1015E0001BB1012000F072FBF8E700F05DFB001B6F
:1015F000C728F6D9BDE83840FEF75CBEC01A002007
:101600000818002007B502AB012243F8041D194653
:10161000FFF76AFE18B1019803B05DF804FB4FF0C4
:10162000FF30F9E7A0F59470FFF7ECBF07B502A90A
:10163000002301F8013D0122FFF7F2FE20B19DF8E1
:10164000070003B05DF804FB4FF0FF30F9E7A0F5A9
:101650009470FFF7EBBF2DE9F84304468846174620
:101660001E46089DFFF7F8FAD4F87092B9F1000F02
:1016700004D02B46324639464046C847C4F86082FB
:10168000C4F86472C4F86862C4F86C52BDE8F883A8
:1016900070B50646FFF7E0FA06F51D740025D6F88A
:1016A000B432AB4208D92046103454F8043C1BB184
:1016B0001B6898470135F2E770BD0000B0F5966FE2
:1016C00003D10121014806F053BD7047C01A002024
:1016D00010B4D0E9013401686210E40701EB0200A4
:1016E00048BF8A585DF8044B48BFD35818470000DC
:1016F000114B03F1780270B50360C0F8282103F1A3
:10170000D802E8330446C0F82C21C0F8403100F577
:101710001D7600F52D75AE4204D0103D2846FEF72B
:10172000E9FDF8E704F5947005F09EFA2046FFF70E
:1017300067FB204670BD00BF8C200200A0F59470AE
:10174000FFF7D6BFA0F59670FFF7D2BF10B50446DD
:10175000FFF7CEFF20464FF42E7106F0AFFB204678
:1017600010BDA0F59670FFF7F1BFA0F59470FFF7DC
:10177000EDBF0000F7B5044615461F460E4607F0BC
:10178000D3F8BDF824300193BDF8203000932A46E9
:101790003B4601462046FFF7C1FC002104F594704A
:1017A00005F038FA4FF47A73C4F84831174B2360C8
:1017B00003F178020025C4F8282103F1D802E833A8
:1017C000C4F82C21C4F84451C4F840314FF480725D
:1017D000294604F5A8700DF043F8C4F85052C4F837
:1017E0008052C4F85452C4F89052C4F85852C4F805
:1017F000A052C4F8B052C4F8B452C4F8705216B132
:101800002046FFF74FFD204603B0F0BD8C200200BC
:1018100038B50546FFF710FA95F8D8304BB9D5F82A
:101820002041402C28BF40242846FFF70DFA2046CF
:1018300038BD0024F8E7000070B5044686B0FFF715
:10184000FBF92D4BC4F870322046FFF7FDF92B4B06
:1018500005932B4B03932046002302940493FFF738
:10186000EBF9D4F8B452032D13D804EB05166B1C16
:1018700006F51D76C4F8B4323046FEF73BFD04EBA6
:101880000515059BC5F880321BB15B6802A930467F
:1018900098472046FFF7D8F902A8FEF72BFDBC2099
:1018A00006F0F6FA0026174B03600546314606613E
:1018B000403006F003FD05F1540006F09DFC124B8C
:1018C00000934FF4807233462846182106F08EFDAF
:1018D0000E4B05930E4BC4F85C5202A92846CDE985
:1018E0000236049606F08EFD02A8FEF703FD2046A0
:1018F000FEF772FE06B070BDBD1601006420020046
:10190000D9050100B03602007C20020070200200E0
:10191000C5150100A0F5A070FFF78EBF90F8780004
:101920007047000037B50F4C0F4D204606F016FCEF
:101930002A460E49204606F0A0F80D4C42F212034A
:101940000122CDE90032002211464FF4F85320461F
:10195000FFF710FF07492A46204603B0BDE8304094
:1019600006F08BB8C01A0020000200207781010029
:1019700008180020F116010008B50BF0A9FC2DE9AC
:10198000F04F027D012A85B005460E4640F090805A
:1019900000214FF0FF3B04460B465F4694F804C01D
:1019A00048B2BCF1000F75D194F805C0BCF1000F2E
:1019B00070D1B7F1FF3F1BBF01335BB20123384643
:1019C000934201DD1A4683460131082904F10204DD
:1019D0005ED1002402EB0B03A1460293CB4502DC4F
:1019E000029B4B4559DC95F8058095F804A04FEA19
:1019F00028170AF00F03FAB25FEA2A1A019208F0D8
:101A00000F0870D05FFA8AF1BAF1090FD4BF3031F4
:101A100057313046039300F0B0F8039B0444092B80
:101A200094BF03F1300103F157013046039300F0F6
:101A3000A4F80444BAF1000F02D1039B03B94FB1DB
:101A4000092F019FD4BF30375737F9B2304600F025
:101A500094F80444B8F1090F94BF08F1300108F17B
:101A60005701304600F089F8B9F1070F044404D05B
:101A70003A21304600F081F8044409F10109B9F136
:101A8000080F05F10205A9D1204605B0BDE8F08F89
:101A9000074683E74FF0FF3096E7CB45EDD1BBF12A
:101AA000000FE5D13A21304600F067F80444DFE743
:101AB00000F1100700F11309002417F8011B0A2296
:101AC000304600F0B9F82E218046304600F055F837
:101AD000B94540440444F0D10A22E97C304600F084
:101AE000ABF80444D0E7002B99D1A8E710B5054B1B
:101AF0000360044601751022002104300CF0B0FE92
:101B0000204610BDA821020070B5074D0560837402
:101B100000259DF81030057545608560C56001742D
:101B20004274C37470BD00BFA821020007B5012133
:101B30000648FFF7DBFF002300931A4619460448C6
:101B4000FFF7E2FF03B05DF804FB00BFD41A0020EA
:101B5000EC1A002070B5044608460D460DF050FA08
:101B600023680246294620465B68BDE87040184756
:101B700009B1FFF7EFBF0846704703681B681847B5
:101B80000149FFF7E7BF00BFE333020070B58AB039
:101B90000D460AA9002301F8043D012A98BF0A2234
:101BA000B5FBF2F402FB1456F3B2092E94BF3033A6
:101BB0003733DBB2254601F8013D002CF0D1FFF7A9
:101BC000D7FF0AB070BD2DE9F04107460E46154615
:101BD0002AB90368C9B21B68BDE8F04118470A2A50
:101BE00005D1002905DBBDE8F041FFF7CFBFD2B238
:101BF000F9E72D21FFF7C1FF2A4604467142384616
:101C0000FFF7C4FF2044BDE8F08138B50546FFF773
:101C1000DAFF04462846FFF7B3FF204438BD10B46E
:101C20002AB903685DF8044B1B68C9B21847D2B2E1
:101C30005DF8044BFFF7AABFFFF7F1BF10B500F046
:101C400047F8FEF7D5FAFEF7D3FFFEF7C7FF4FF4CC
:101C5000E1310648064CFFF7EFFDFEF7ABFAFEF761
:101C6000B1FA002CFBD0AFF30080F8E70818002091
:101C70000000000010B50446FEF7B8FA84423BBFEE
:101C80002401024B4FF0FF30185710BD0402002012
:101C900010B5044602F04CFE204610BD10B50446B7
:101CA00002F046FE204610BD07B50749684602F01F
:101CB0007CFE4FF47A720023DDE900010BF038F965
:101CC00003B05DF804FB00BF081B002006F026BB34
:101CD00008B5044802F036FE0348BDE8084002F0AB
:101CE00031BE00BF201B0020081B002038B50A4C65
:101CF0000A4D204602F096FE2046094C09492A4624
:101D000005F0BBFE204602F098FE2A462046064912
:101D1000BDE8384005F0B1BE201B002000020020C5
:101D2000081B00209D1C0100911C010008B590F9C2
:101D300000305A1C04D121220E490F4805F0B8FA90
:101D4000012259B11F2B86BF03F01F030B494FF02F
:101D5000A04102FA03F3C1F8083508BD1F2B86BF66
:101D600003F01F0305494FF0A04102FA03F3C1F845
:101D70000C35F2E72222020030220200000300505C
:101D80002DE9F8431C4D4FEA001805EB0802044604
:101D9000D0680F4610B1012106F090F82046FFF7F9
:101DA00069FF8146012006F073F800260670494657
:101DB000044604F031FB05EB0803012FDC6010D072
:101DC00006D3022F12D0204602F0EFFA012103E0E1
:101DD000204602F0EAFA31462046BDE8F84302F018
:101DE000F1BA2046BDE8F84302F0D2BA204602F02C
:101DF000DCFA0321F0E700BF04020020F7B5064635
:101E00000F46FEF7F3F986421BD20F4D05EB061580
:101E1000EC687CB93046FFF72DFF0646012006F03E
:101E200037F800230446037001220097314604F07E
:101E300009FBEC603946204603B0BDE8F040FFF7EF
:101E400075BF03B0F0BD00BF040200201EF0040FF8
:101E50000CBFEFF30880EFF30980816911F8021CD1
:101E6000002932D101B590E80F10E047BDE80050DD
:101E70008CE80300244B93E80600914208BF7047AA
:101E80001A6041B91EF0100F10D1204B186820F0D5
:101E9000010018600AE02CE9F00F1EF0100F08BFD7
:101EA0002CED108A81F822E0C1F838C0906B92F8CE
:101EB000221061F0FF0E1EF0100F08BFB0EC108A68
:101EC000B0E8F00F80F309887047114A136899420F
:101ED000FAD801B552F821C00FC8E047BDE800505C
:101EE000CCF80000704701B501F030FBBDE80140BF
:101EF000EFF3098CBEE701B501F0ECFABDE8014053
:101F0000EFF3098CB6E700003804002034EF00E05E
:101F10001023020008B5014630B96FF0030000F04D
:101F2000EEF96FF0030008BD132001F0AFFE30B9E9
:101F30004FF0FF3000F0E3F94FF0FF30F3E70020FF
:101F4000F1E7000008B5EFF305832BB9EFF3108339
:101F500013B9EFF3118333B16FF0050000F0CFF93F
:101F60006FF0050008BDDFF808C000DFFAE700BF2A
:101F7000151F0100EFF310832BB9EFF31180003828
:101F800018BF0120704701207047000038B5054692
:101F9000A0B1846802686CB114F0030302D1C16877
:101FA0000F2926D86FF00801002002F0A7F80024BE
:101FB000204638BDC368002BF4D11546104BD3F82A
:101FC000900078B100F0FAFB0446A0B10123A370A1
:101FD0000023C4E90233F322094B2270094A6560E9
:101FE0005A66E5E7D3F880000122102100F06EFB6D
:101FF000EAE71546EBE76FF0040102F07FF8D7E758
:102000002404002071200100930710B502F00104A0
:1020100022D400F10C0384B153E8000F00EA01025E
:102020008A4203D0BFF32F8F002005E020EA01028F
:1020300043E8002404B1EFE710BD53E8000F084265
:1020400003D1BFF32F8F002005E020EA010243E80F
:10205000002404B1F1E7EFE7C06801EA00031CB116
:10206000994218BF0020E7E7002B08BF0020E3E7F4
:10207000F8B58468054604B9F8BD94F82320616A70
:10208000A7682846FFF7C0FF064638B1204601F092
:10209000D6FB00223146204601F050FD3C46EAE7DF
:1020A000F8B50D4617461E46044620B10378F32BBB
:1020B00001D1002907DA20466FF0030102F01EF873
:1020C0006FF00300F8BDFFF79FFF0028FAD186B13B
:1020D0003146432001F0DAFD40B1074B5E692046EE
:1020E000314601F091FB756286F823706FF00100B4
:1020F000E8E76FF00200E5E72404002070B505462C
:1021000010B10378F32B07D028466FF0030101F0DC
:10211000F5FF6FF0030070BD836863B1284601F0DE
:1021200085FB00226FF0020101F008FDA86800287D
:10213000F4D101F0E9FBAB78002613F001032E7017
:102140000FD0094BD3F89040294624B1204600F027
:102150004FFB3046DFE7D3F8800000F0EBFA204673
:10216000D9E71846D7E700BF240400202DE9F04145
:10217000064620B10378F32B01D1002909DA6FF06C
:102180000301304601F0BAFF6FF003052846BDE8B1
:10219000F08100F10C0353E8002F42EA010543E807
:1021A000005000B1F7E7B4681CB9204601F0ACFB61
:1021B000ECE794F82320616AD4F808803046FFF7F2
:1021C00023FF074678B194F823309B0756BF656A12
:1021D000054620EA0505204601F031FB002239467C
:1021E000204601F0ABFC4446DEE7000008B502469D
:1021F000EFF3058333B100206FF0050101F07EFF9E
:10220000002008BDFFF7B6FE0028F4D1DFF808C0B3
:10221000104600DFF5E700BF8D1F010038B502460C
:10222000EFF305834BB192B96FF00301104601F053
:1022300065FF6FF00304204638BDFFF79BFE0028C2
:10224000F1D1DFF830C0104600DF0446F3E7137821
:10225000F32BE9D10029E7DB02F10C0353E8000F6F
:1022600040EA010443E8004505B1F7E7104601F0F4
:10227000B5F9E0E76D21010038B504461D46EFF3DE
:10228000058343B18CB920466FF0030101F036FF9E
:102290006FF0030038BDFFF76DFE0028F2D1DFF8C4
:1022A00028C020462B4600DFF4E72378F32BEAD141
:1022B000002DE8D10029E6DB2046FFF7A5FE002827
:1022C00008BF6FF00200E5E7A120010008B5024653
:1022D000EFF305833BB110466FF0050101F00EFFEF
:1022E0006FF0050008BDFFF745FE0028F3D1DFF8C9
:1022F00008C0104600DFF5E7FD2001007047704779
:10230000EFF310832BB9EFF31180003818BF0120D1
:102310007047012070470000064BDA6A3AB1D06975
:102320005B6C1BB11B69984228BF184670474FF081
:10233000FF30F5E72404002070B5464C237A012BCA
:1023400000F0858033B14FF0FF3001F0CBFE4FF04D
:10235000FF3070BD404DD5E90B61EB68E3652B8A1A
:10236000A4F854303046AB68236400F097F908B104
:10237000C4F88060D5E90561304600F08FF908B9EE
:10238000D4F880606667D5E90761304600F086F9C9
:1023900008B9D4F88060A667D5E90961304600F035
:1023A0007DF908B9D4F88060E6676E6B3EB1D6E976
:1023B00002233168304600F0E0F9C4F88460AE6B67
:1023C0003EB1D6E902233168304600F0D6F9C4F8B0
:1023D0008860EE6B3EB1D6E902233168304600F0EA
:1023E000CCF9C4F88C602E6C3EB1D6E9022331687A
:1023F000304600F0C2F9C4F890606E6C3EB1D6E988
:1024000002233168304600F0B8F9C4F89460AE6C2D
:102410003EB1D6E902233168304600F0AEF9C4F887
:102420009860EE6C3EB1D6E902233168304600F088
:10243000A4F9C4F89C602D6D3DB1D5E9022329684B
:10244000284600F09AF9C4F8A05001232372002016
:102450007FE700BF24040020A022020070B5254DB4
:102460002B7A012B07D06FF0060001F03BFE4FF0F6
:10247000FF34204670BD01F03DFC10B94FF0FF3035
:10248000F3E71D4A1D4E1E497068FF2382F8223073
:1024900092F82230D26863F0FF03DB4314BFB3FA33
:1024A00083F32023C3F12003C2F30222934298BF97
:1024B000531CFE2202FA03F30F4ADBB2D37701F07A
:1024C0006DFE04460028D9D101F0BCFE286101F060
:1024D000A5FE0C4801F0AAF901F00EFA3368DB07FB
:1024E0004CBF0223032383F31488BFF36F8F0223AF
:1024F0002B72BEE72404002000ED00E0A0220200C1
:10250000F71E01004004002010B50F4C237A022B67
:1025100013D101F08BFE01236372BFF34F8F0B4A7F
:102520005168C90042BF4FF000615160A37204239B
:102530002372BDE81040FFF7EFBE6FF0070001F017
:10254000D1FD002010BD00BF2404002000ED00E0FC
:1025500038B51E4C237A042B054635D1FFF7DCFE37
:10256000E26AA842034694BF00F1FF332B4612B142
:10257000D069C01AD061626C12B11069C01A1061C2
:10258000E06803440544E360E368AB4213D10223EF
:102590000020237201F0B8F900236372BFF34F8F5C
:1025A000A27A22B1A3720A4B4FF080525A60BDE862
:1025B000384001F033BE0133E36001F063F9236D6D
:1025C000002BE1D09847DFE738BD00BF240400208E
:1025D00000ED00E0704738B504460D46FFF78EFE6B
:1025E00029462046BDE8384001F03EBD08B5FFF75A
:1025F000F1FFEFF3058333B16FF0050001F072FDD9
:102600006FF0050008BDFFF77BFE0028F4D1DFF86E
:1026100008C000DFF6E700BF3923010008B5EFF37B
:10262000058333B16FF0050001F05CFD6FF005002C
:1026300008BDFFF765FE0028F4D1DFF808C000DF11
:10264000F6E700BF5D24010008B5EFF305832BB169
:102650006FF0050001F046FD002008BDFFF750FEB9
:102660000028F5D1DFF804C000DFF6E709250100F6
:1026700008B50246EFF305832BB1BDE808406FF0C3
:10268000050001F02FBDFFF73BFE0028F5D1DFF874
:1026900008C0104600DF08BD5125010010B598B1F3
:1026A00040EA010313F007030ED117290AD901608C
:1026B000083910220C18846042600B5081684A600F
:1026C000C3600123184610BD0023FBE7F0B578B3C3
:1026D00099B132F003032BD10F3121F0070700F13C
:1026E00008052B462D685C68E91A24F00304091BD1
:1026F0008F4204D929680029F3D10846F0BD466805
:1027000004683E4446602044083841688E4288BFD1
:10271000466058683A4318B95A6003F10801ECE77B
:1027200020F0030019181D504A6019600831E4E7D1
:102730000021E2E730B590B1D9B1A1F1080500F16F
:1027400008040022AC420BD151F8043C23F00304EE
:1027500043681B1B436042B941F8042C012030BD83
:10276000236822463BB11C46ECE751F8083C136055
:10277000F4E70846F3E71846F1E730B5C0B189B190
:10278000C2B1CBB10024C0E9014202FB01F41D1922
:102790000160C360436105611846013904D1A21A82
:1027A00099500121084630BD851805602846F4E798
:1027B0000146F7E71146F5E71946F3E710B503467A
:1027C000A8B100F1140252E8000F10B9BFF32F8F27
:1027D00004E0016842E8001404B1F4E738B10433BE
:1027E00053E8002F511C43E8001404B1F8E710BD72
:1027F00030B5F0B1C3688B421BD803698B4218D93E
:1028000000F114031A680A60BFF35F8F53E8002FCA
:102810000C689442F6D143E8001505B1F2E70430A4
:1028200050E8003F5A1E40E8002101B1F8E70020BF
:1028300030BD6FF00300FBE7EFF310832BB9EFF32C
:102840001180003818BF0120704701207047036BCA
:1028500030B5E3B1CD780024DA78AA420FD31A4616
:10286000C1E901248AB19160A4B16160283050E8C7
:10287000003F5A1C40E8002101B1F8E730BD5A681A
:102880001C46002AECD01346E6E7C162ECE7C1E93A
:102890000133C1620163E9E7D1E9013223B19A60F2
:1028A0008A681AB153607047C262F9E703637047E0
:1028B000F8B5877804468FB3C568014600272846D7
:1028C00005F10C06FFF7E8FF27703046FFF790FF91
:1028D000AB68002B48D03046FFF770FF0446002855
:1028E00042D0284600F0A2FF3A460646394601F09B
:1028F00025F9304600F0F6FF6A6A8168064604F161
:102900000C000BF0AFFEF9232370A770F368E3709F
:1029100021462846BDE8F840FFF799BF8568AB68B7
:10292000002BF5D05B78832BF2D1284600F07EFF98
:102930003A460646394601F001F9304600F0D2FF2A
:1029400006466A6A806804F10C010BF08BFEF3689E
:102950000BB1E2781A7000232370214605F10C00B8
:10296000BDE8F840FFF744BFF8BD00002DE9F04195
:102970000C4617469846054618B10378FA2B00D145
:1029800041B928466FF0030101F0CEFB6FF0030060
:10299000BDE8F0818368C3B15B78832B15D100F06B
:1029A00045FF01220646002101F0C8F8304600F03C
:1029B00099FF06466A6A806821460BF053FEF0686C
:1029C0000028E5D007700020E2E705F10C00FFF7D2
:1029D000F5FE064670B121466A6A0C300BF042FEE5
:1029E0000024F9233370B470F77031462846FFF79E
:1029F0002EFFE8E7B8F1000F10D04146932001F018
:102A000045F940B1074B2846596900F0FDFEEFF348
:102A10000983C3E902476FF00100B9E76FF00200D4
:102A2000B6E700BF240400202DE9F84F884607468A
:102A300038B131B1B0FA80F3B1FA81F10B441F2BF8
:102A400006DC6FF00301002001F06EFB002470E053
:102A500008F1030626F003060C3606FB00F9F2B176
:102A600094683CB1A30702D1D368332B05D86FF02B
:102A70000801E8E7D368002BF9D1D2E90453D2F872
:102A800000A03DB115F0030B01D1994554D96FF069
:102A90000901D8E7002BFAD11CB19B460CE0924605
:102AA0001546274BD3F8A000D8B1FFF787FE0446A0
:102AB000A0B14FF0010B35BB214B0022D86F494626
:102AC000FFF704FE0546C0B9BBF1000F06D01C4B52
:102AD000D3F8A000214658B1FFF78AFE6FF0040139
:102AE000B1E7D3F8800001223421FFF7EFFDDEE7E4
:102AF000D3F88000FFF71EFEF0E74A4600210BF0F6
:102B0000AFFE4BF0020BFA2323700023C4E90983C4
:102B1000C4E90B33A36032462B4684F802B0C4F8F4
:102B200004A0394604F10C00FFF727FE044B054AC8
:102B30001A672046BDE8F88F002CE4D1B1E700BF4A
:102B400024040020B128010010B500F1280353E847
:102B5000002F12B9BFF32F8F04E0511E43E8001479
:102B600004B1F4E70AB9002010BDC06A01230028AF
:102B7000F9D0821CD2E84F1FC2E8443F04B1F9E704
:102B800011F0FF0FF0D08068F1E700002DE9F0416F
:102B90000F4615469846044618B10378FA2B00D123
:102BA00041B920466FF0030101F0BEFA6FF0030057
:102BB000BDE8F081FFF7C8FF064600283AD001467D
:102BC0002046FFF769FE626A06F10C0138460BF0F9
:102BD00049FD0DB1F3782B70002504F10C07357019
:102BE00031463846FFF704FEA3680BB90020DFE743
:102BF0003846FFF7E3FD06460028F7D0204600F0F0
:102C000015FE29460746012200F098FF384600F0DD
:102C100069FE626A8168074606F10C000BF022FD2E
:102C2000F9233370B570FB68F37031462046FFF727
:102C30000EFEDBE7B8F1000F10D04146832001F013
:102C400025F840B1074B2046596900F0DDFDEFF350
:102C50000983C3E902756FF00100A9E76FF0020074
:102C6000A6E700BF2404002008B5064B08219A6E91
:102C7000D86EFFF7D9FE044BD864B0FA80F0400953
:102C8000404208BDA0220200240400202DE9F041AA
:102C900006460F4690461C46EFF305834BB196B9A6
:102CA00030466FF0030101F03FFA6FF00300BDE81A
:102CB000F081FFF7C1FD0028F1D1DFF84CC03046AC
:102CC000234600DFF3E73378FA2BE9D1002FE7D072
:102CD000002CE5D106F10C00FFF770FD054680B130
:102CE000726A39460C300BF0BDFCF9232846C5E961
:102CF00001762B70AC7085F8038000F06FFC2046E5
:102D0000D5E76FF00200D2E76D290100F8B504465F
:102D10000F4616461D46EFF3058343B18CB9204696
:102D20006FF0030101F000FA6FF00300F8BDFFF748
:102D300083FD0028F2D1DFF848C020462B4600DF93
:102D4000F4E72378FA2BEAD1002FE8D0002DE6D162
:102D50002046FFF7F9FE054670B100F10C01626AEA
:102D600038460BF07FFC0EB1EB7833702846EC60F0
:102D700000F034FC0020D9E76FF00200D6E700BF76
:102D80008D2B0100EFF310832BB9EFF31180003886
:102D900018BF0120704701207047000070B5A8B32C
:102DA0008468D0E900566CB114F0030302D1C26804
:102DB0001B2A1AD86FF00801002001F0A5F90024A1
:102DC000204670BDC368002BF4D1124BD3F8940099
:102DD00030B9D3F8800001221C21FFF777FC01E015
:102DE000FFF7ECFC044660B10123F522A370002339
:102DF000C4E90233C4E904332270E67065602376C7
:102E0000DEE76FF0040101F07FF9D9E705460646D9
:102E1000DBE700BF24040020284B70B55D69044641
:102E20000E4635B96FF0070101F06EF94FF0FF3033
:102E300070BD10B10378F52B07D020466FF0030169
:102E400001F062F96FF00300F2E7037E53B9C0E9C5
:102E50000353EB6A436103B11861EC6201232376EB
:102E60000020E5E7C278D1070DD5C168A9420AD193
:102E7000FF2B06D16FF00F0101F046F96FF0020051
:102E8000D6E70133EBE7002EF8D093070AD5E068C8
:102E900095F9203090F920209A4203DA80F820300A
:102EA00000F0D6FC3146532000F0F0FE18B1294660
:102EB000204600F0A9FC6FF00100B9E724040020CF
:102EC0002E4B5A6970B5044632B96FF0070101F014
:102ED0001BF94FF0FF3070BD10B10378F52B07D010
:102EE00020466FF0030101F00FF96FF00300F2E7E5
:102EF000037E33B96FF00E0101F006F96FF00200A6
:102F0000E9E7C168914202D06FF00D01F4E7013B9F
:102F1000DBB2037613BB43690BB101691961216907
:102F2000F1B14B6192F92130D56ADDB982F82030D8
:102F3000A36883B1204600F079FC06462A4629465C
:102F400000F0FCFDF36A6361C4E9036503B11C6131
:102F50000123F4622376002000F0D6FC0020BAE7BB
:102F6000D362DFE7E978890706D5A96821B191F92D
:102F700020108B42B8BF0B466D69D6E724040020B1
:102F800070B5044610B10378F52B07D020466FF0DA
:102F9000030101F0B9F86FF0030070BD037EBBB10F
:102FA0006369C0680BB122691A61226902B3536177
:102FB00090F92120C36AEBB990F92030934203D0F5
:102FC00080F8202000F044FCA068F8B900F09CFCD8
:102FD000A078002610F001002670DED0134BD3F845
:102FE00094502146DDB12846FFF702FC3046D4E775
:102FF000C362DDE7D978890706D5996821B191F9CF
:1030000020108A42B8BF0A465B69D4E7204600F028
:103010000DFC00226FF0020100F090FDD4E7D3F820
:103020008000FFF787FB2846B7E700BF2404002095
:103030002DE9F0410446002601270CB9BDE8F081D6
:10304000E378D4F814801B0712D5A36826767BB1E9
:10305000204600F0EBFB00220546114600F06EFD15
:10306000EB6A6361C4E9035603B11C61EC62277625
:103070004446E2E710B4C3789B071DD5C06890F9B9
:103080002120C36ADC78A40709D59C688C4208BF5C
:103090008C6824B194F92040A242B8BF22465B69F3
:1030A000002BEFD190F92030934205D080F82020FA
:1030B0005DF8044B00F0CCBB5DF8044B704700009A
:1030C00008B50246EFF3058333B100206FF0050128
:1030D00001F01AF8002008BDFFF754FE0028F4D1D3
:1030E000DFF808C0104600DFF5E700BF9D2D0100A6
:1030F00008B50246EFF305833BB110466FF00501BA
:1031000001F002F86FF0050008BDFFF73BFE002854
:10311000F3D1DFF808C0104600DFF5E7192E0100F3
:1031200008B50246EFF305833BB110466FF0050189
:1031300000F0EAFF6FF0050008BDFFF723FE00284E
:10314000F3D1DFF808C0104600DFF5E7C12E01001B
:1031500008B50246EFF305833BB110466FF0050159
:1031600000F0D2FF6FF0050008BDFFF70BFE00284E
:10317000F3D1DFF808C0104600DFF5E7812F01002A
:10318000EFF310832BB9EFF31180003818BF012043
:103190007047012070470C30D0E85F3F13B9BFF390
:1031A0002F8F04E05A1EC0E8512F01B1F4E798B206
:1031B000003818BF0120704730B500F10C02C189FA
:1031C000D2E85F3F994202D8BFF32F8F04E05C1C26
:1031D000C2E8554F05B1F3E7C0899BB2984294BF4E
:1031E0000020012030BD0000F8B515464FF6FE73F3
:1031F000421E9A4206460F4601D8884207D26FF017
:103200000301002000F086FF00242046F8BD7DB1B8
:10321000AC682A6844B114F0030302D1E9680F29AD
:1032200022D86FF00801ECE7EB68002BF9D11546C6
:10323000114BD3F8980080B1FFF7C0FA0446A8B14B
:103240000123A3700023F622A3600B4B22700B4ACC
:103250006560A781E6819A66D7E7D3F880000122EE
:103260001021FFF733FAE9E71546EAE76FF00401AA
:1032700000F050FFC9E700BF2404002081320100A4
:10328000836810B504465BB1FFF785FF40B1204667
:1032900000F0CCFA0022BDE81040114600F04EBC10
:1032A00010BD38B5054610B10378F62B07D0284677
:1032B0006FF0030100F02EFF6FF0030038BD84684B
:1032C0003CB100F0B3FA0122002100F037FC0020ED
:1032D000F4E7FFF771FF38B928466FF0100100F0EE
:1032E00019FF6FF00200E9E72046E7E738B50D4621
:1032F000044610B10378F62B07D020466FF0030187
:1033000000F008FF6FF0030038BDFFF744FF68B915
:1033100075B12946632000F0B9FC20B1064B204668
:10332000596900F071FA6FF00100EDE70020EBE75A
:103330006FF00200E8E700BF2404002070B50546E6
:1033400010B10378F62B07D028466FF0030100F088
:10335000E1FE6FF0030070BD836863B1284600F0A2
:1033600065FA00226FF0020100F0E8FBA86800286F
:10337000F4D100F0C9FAAB78002613F001032E70E7
:103380000FD0094BD3F89840294624B12046FFF7C7
:103390002FFA3046DFE7D3F88000FFF7CBF920465D
:1033A000D9E71846D7E700BF2404002010B504462B
:1033B000EFF3058333B100206FF0050100F0AAFEA2
:1033C000002010BDFFF7DCFE0028F4D1DFF808C0B4
:1033D000204600DFF5E700BFE931010008B50246ED
:1033E000EFF3058343B182B910466FF0030100F09B
:1033F00091FE6FF0030008BDFFF7C2FE0028F2D176
:10340000DFF824C0104600DFF5E71378F62BEBD188
:103410000029E9D11046FFF7BEFE002814BF0020A6
:103420006FF00200E7E700BFED32010010B504467F
:10343000EFF3058343B184B920466FF0030100F038
:1034400069FE6FF0030010BDFFF79AFE0028F2D16D
:10345000DFF830C0204600DFF5E72378F62BEBD10C
:103460002046FFF7A9FE20B1204600F0B7F8002063
:10347000E9E720466FF0100100F04CFE6FF002000B
:10348000E1E700BFA332010008B50246EFF3058370
:103490003BB110466FF0050100F03CFE6FF00500F7
:1034A00008BDFFF76DFE0028F3D1DFF808C0104615
:1034B00000DFF5E73D33010010B5D0E85F3F5A1C4F
:1034C000914200D80022C0E8542F04B1F5E798B229
:1034D00010BD000038B51C4C00F0AEFEE3680133AF
:1034E000E36000F0CFF9002000F00EFA236D03B185
:1034F0009847226C32B3A369E16B994203D0D96932
:10350000E36301B9DA61DA69C2B9237A022B19D10E
:10351000656ABDB1E36B95F9202093F920309A429A
:1035200010D1284600F08BF9E06B00F0A3F9284693
:1035300000F0E2F9236CE563EB6103E0013ADA6144
:10354000002AE2D038BD00BF2404002070B5224C10
:1035500004F1560504F15A06B4F85410D5E85F3F5B
:1035600013B9BFF32F8F04E05A1EC5E8502F00B1E6
:10357000F4E79BB25BB33046FFF79EFFE36D53F871
:10358000200020B30378F13B082BE5D801A252F8C4
:1035900023F000BFB935010059350100BF350100E6
:1035A0005935010059350100C3350100C735010007
:1035B00059350100CB350100236E9847CCE7636E87
:1035C000FBE7A36EF9E7E36EF7E7236FF5E7BDE8E6
:1035D0007040002000F098B92404002070B5164C0B
:1035E0000546B4F8541004F15602D2E85F3F994200
:1035F00002D8BFF32F8F04E0581CC2E8560F06B163
:10360000F3E79BB2994205D829460220BDE87040F5
:10361000FEF7E1BF04F15800FFF74EFFE36D43F8FA
:103620002050637A23B9054B4FF080525A6070BD29
:103630000123A372FBE700BF2404002000ED00E09B
:10364000EFF310832BB9EFF31180003818BF01207E
:103650007047012070470378F12B00D07047C06895
:10366000F9E7000010B5C469621CD0E904310CD13F
:1036700003B1596142691AB113610023436101E04A
:10368000074A13630023C36110BD1BB1DA69596196
:103690002244DA614269002AEED1014AD362F1E79D
:1036A0002404002010B50A4A90F920100123437029
:1036B000536A1C321BB193F920408C4205DCC0E9EF
:1036C0000232906003B1D86010BD1A469B68F1E7E2
:1036D00024040020014B5869704700BF24040020D7
:1036E00008B500F027FDDFF810C000DF4FF0FF3114
:1036F000002000F0FDFCFEE7A53B0100930710B59C
:1037000002F0010422D400F1280384B153E8000F31
:1037100000EA01028A4203D0BFF32F8F002005E0A8
:1037200020EA010243E8002404B1EFE710BD53E8AA
:10373000000F084203D1BFF32F8F002005E020EADD
:10374000010243E8002404B1F1E7EFE7806A01EAEF
:1037500000031CB1994218BF0020E7E7002B08BF07
:103760000020E3E710B5084A136B00213BB94FF086
:10377000FF34C0E90431C46121B1086110BD1946AC
:103780001B69F3E71063F9E72404002010B5002358
:10379000038083789A07044608D513F0100F016B55
:1037A0000E4B0FD0D3F88400FFF722F8A378DB0785
:1037B00012D50A4BD3F88800214638B1BDE8104035
:1037C000FFF716B8586FFEF7B5FFEFE7BDE81040FA
:1037D000D3F88000FEF7AEBF10BD00BF2404002068
:1037E000C278D207034601D4FFF7D0BF042242704B
:1037F0000022C260034A516B816001B1C86053630B
:10380000704700BF2404002010B591F92020836880
:103810001BB193F92040944205DAC1E9023081607E
:1038200003B1D96010BD18469B68F1E783689A68B8
:10383000826002B1D0600022DA6018467047C26828
:103840002AB18368936003B1DA600023C3607047D4
:1038500010B50146044664B12378F12B07D0084621
:10386000FFF7EDFF2046BDE81040FFF7CDBFE4684D
:10387000F1E710BD0123014643700148FFF7C4BFC3
:103880004004002038B5164DEC6A44B3E369013BAF
:10389000E36123BB6378732B06D009D8532B0BD07D
:1038A00003F0DF03432B0DD12046FFF7D4FE09E0E0
:1038B00003F0EF03832BF6E72046FFF7CCFE21460B
:1038C000FFF7D8FB2046FFF7BAFFFFF7D3FF2469C5
:1038D00024B1E369002BDDD000236361EC6238BDC5
:1038E0002404002090F82230826B13F0100F0CBFDC
:1038F000602020201044704702234370014B9861E0
:10390000704700BF2404002070B5124D04462E7A83
:10391000696990B9022E0FD16C6A6CB194F92020BC
:1039200091F920309A4207DD2046FFF788FF0846CC
:10393000FFF7B8FE6670AC6170BD022E05D190F93C
:10394000202091F920309A42F1DC2046BDE87040F9
:10395000FFF790BF240400202DE9F04F85B0814689
:10396000029128B96FF0030100F0C2FB0024BCE013
:10397000002A45D0966846B1B40702D1D368432BDC
:1039800006D86FF008010020EEE7D368002BF8D1CD
:10399000D2E9044597693CB1600702D1002D40F09F
:1039A000B2806FF00A01EEE72FB17B1E372B03D9EF
:1039B0006FF00B01E7E71827002D40F0A880D2E94F
:1039C00000A301934EBB574BD3F88800F0B1FEF72C
:1039D000F5FE064600283AD04FF00108002C44D1ED
:1039E000DFF840B1E5B9504ADBF88400556DB8B155
:1039F000FEF7E4FE0246E0B148F01008344623E04A
:103A000092461446182715460192DCE7D3F8800049
:103A100001224421FEF75AFEDBE74FF00008DDE704
:103A20002246DBF874002946FEF750FE02460028C5
:103A3000E4D1B8F1000F16D0DBF8882052B110465F
:103A40003146FEF7D5FE002248F002087CB96FF03F
:103A5000040198E7DBF8800003923146FEF76AFE26
:103A6000039A1446F0E74246EEE72246344640F217
:103A7000F1132380019BE3700023C4E90233C4E9FE
:103A80000433C4E90633C4E90933C4E90B32A5F1B0
:103A900040031344C4E90E397FB2244B84F80280FA
:103AA000FD21C4F804A084F8207084F8217061849A
:103AB000656313601C4B1B685B071AD4A36B002063
:103AC0001A4603F1340143F8040B9942FBD1184B19
:103AD000C2E90D394FF08073D363029B1362114B1F
:103AE000144A1A662046FFF70FFF204605B0BDE8CE
:103AF000F08FAD08113D4FF0CC33002DDED042F8F1
:103B0000043F013DF9E7002F7FF44FAF1827690705
:103B10007FF447AF084BA5F1480199427FF64FAFBC
:103B20003FE700BF24040020A0220200A52E5AE295
:103B3000E1360100613B0100B7FFFF7F38B5044665
:103B40001546FFF7CFFE01602046FFF78BFD1DB144
:103B5000BDE83840FFF7D8BEBDE83840FFF78ABE61
:103B600010B54378332B04460CD1416A90F82320DA
:103B7000FFF7C4FD014628B120460022BDE81040F1
:103B8000FFF7DCBF10BD10B50446806918B10022F4
:103B90001146FFF7D3FF6378232B02BFA3680022EF
:103BA0009A6110BD70B50F4C267A022E18D1636A47
:103BB000B3B16569E86AFFF73BFA2846FFF7E3FF10
:103BC00004F11C00FFF732FE4670A061EFF3098399
:103BD000AB63002363612846BDE87040FFF700BE79
:103BE00070BD00BF2404002010B5044610B1037856
:103BF000F12B07D020466FF0030100F079FA6FF047
:103C0000030010BD437803F00F03022B1ED0032BDB
:103C10002BD0012B2ED1FFF712FEE06AFFF708FA36
:103C20002046FFF7B0FF6178022926D11548FFF73B
:103C3000FDFD154B41709861EFF30982A2630022EC
:103C40005A612046FFF7CCFD0020DAE70E4B1A7AC6
:103C5000022A02D15B6A002BDFD16FF002012046FD
:103C600000F046FA6FF00200CBE7FFF7E8FDFFF740
:103C7000F9FCD2E76FF00201F2E70020FFF744FE03
:103C8000DFE700BF400400202404002038B5174CB3
:103C9000237A022B024627D1606A60B160694B1C0F
:103CA000427009D1FFF75EFD1148FFF7BFFD022307
:103CB0004370A061012038BDE36A002213B1DD69C1
:103CC000A9420BD2C0E90432C1615AB11061002B84
:103CD000EAD0DA695861511AD961E5E71A46491BF9
:103CE0001B69EBE7E062F2E70020E4E72404002030
:103CF0004004002038B50D4C0D48A26D0D4D00213B
:103D0000FFF72AFE636EA8625BB1984758B9E26D6F
:103D1000E96C206EFFF720FEA864003818BF012070
:103D200038BD0120FCE70020FAE700BFA022020016
:103D3000614001002404002010B50446EFF3058320
:103D400033B100206FF0050100F0D2F9002010BD62
:103D5000FFF776FC0028F4D1DFF808C0204600DF2A
:103D6000F5E700BF5939010008B5EFF3058313B13A
:103D7000054B586908BDFFF763FC0028F8D1DFF850
:103D80000CC000DFF6E700BF24040020D536010098
:103D900010B5044600F0DAF9EFF305833BB1204695
:103DA0006FF0050100F0A4F96FF0050010BDFFF7FA
:103DB00047FC0028F3D1DFF808C0204600DFF5E714
:103DC000E93B01000C4A536C30B5002413B11D6966
:103DD0008D420AD9C0E9024301611BB11D69986097
:103DE000691A19612CB1E06030BD1C46491BDB68C3
:103DF000ECE75064F8E700BF240400202DE9F0410F
:103E0000184D6C6C54B323696E69013B2361012723
:103E1000236913BBE3680BB1A2689A606B6400234B
:103E2000E86C1A4604F11801FEF730FF58B1D5E9E5
:103E30000583214603206B61FEF7CDFB6B6913B947
:103E4000B04508BF0026E378012B09D161692046FF
:103E5000FFF7B8FF6C6C002CDAD16E61BDE8F08121
:103E60006770F7E72404002008B5FEF7FDFE18B9D7
:103E7000034B044A1A6508BD4FF0FF30FBE700BF53
:103E800024040020FD3D010007B504464FF0FF3338
:103E9000002269462046FEF739FF0028F6D1DDE909
:103EA00000309847F2E7000008B5094B094A1A604C
:103EB000094B9B1A094A1360094B0A4A1A600A4BBC
:103EC0009B1A0A4A136000F051F800F069F800BF2D
:103ED000EC21002000FC032000000420E821002049
:103EE000F424002010B0002000FC0320F024002067
:103EF0000E4838B50E4B03600B250E4B45601C2455
:103F0000C4608360FFF7DCF80B4B18600B480C4B68
:103F1000C460C0E900350B4B8360FFF7D1F80A4B52
:103F20001860BDE8384009F0A9BF00BFB8210020E3
:103F300074230200CC210020C82100208821002009
:103F4000812302009C21002098210020FDF776BEED
:103F5000024B4FF0FF311868FFF7CAB8C8210020A4
:103F6000014B1868FFF7DCB8C821002008B505F040
:103F700063FABDE8084000F011B87047704708B513
:103F800000F042F8FFF7F9FFFFF7B2FFFFF7F6FF87
:103F900003F0A8FBBDE80840FFF7D8BFFEF726BB3B
:103FA000114C124B23614FF4004363614423E360DF
:103FB0000F4BA360182307B5A3610E480E4B236077
:103FC00022460021FFF7B8FE034628B90B490090AE
:103FD00022460B4803F08EFBFEF720FB0023094925
:103FE00000931A46F5E700BF1C2B0020482B002049
:103FF000F02100207F3F01009B230200A02302004C
:104000001D010180BC2302001FB5064B0FCB6C467F
:1040100084E80F002046FFF753F8034B186004B004
:1040200010BD00BFD4230200402B002073B506460C
:104030000C46154603F058FB58B906342ABF064B08
:10404000064953F82410002300933246284603F013
:1040500051FB02B070BD00BF98250200EC240200A5
:1040600008B500F0F3F8000007B50023421E0093E6
:104070000023042A19D8DFE802F003080C1014000A
:104080000C490D48012203F035FB0C490C48022273
:10409000F9E70C490C480322F5E70C490C480422C7
:1040A000F1E70C490C480522EDE702460B490C48A4
:1040B000E9E700BFE4230200250102800524020095
:1040C000260102802A240200270102805F240200C8
:1040D000280102809A2402002A010280DA240200C8
:1040E00000010280014A0146FFF7A0BF31010180B3
:1040F000014AFFF79BBF00BF32010180014AFFF771
:1041000095BF00BF37010180014AFFF78FBF00BF95
:104110003301018011F1110F02D0024AFFF786BF6F
:10412000704700BF34010180014AFFF77FBF00BF25
:104130003801018010B5FFF717FE034B1B6813B160
:10414000BDE81040184710BD34220020024B1B6808
:1041500003B11847704700BF34220020024B987A01
:10416000003818BF012070472404002008B5FEF76E
:104170006BFA0749002203F04FFBC31C04D9054921
:1041800005488B2203F094F8BDE80840FEF770BAAA
:104190005D410100D3250200E5250200B0F57A7FDC
:1041A00038B50D4604D018491848322203F080F87B
:1041B00002F08EFD041E13DB04F1604303F561433E
:1041C000E02283F800232946204604F023FD204600
:1041D00004F028FD85420AD00B490D483F22E5E74F
:1041E0000C4B04F00F021344E0221A76EBE7002C8C
:1041F00008DB094B6209012004F01F0400FA04F4F3
:1042000043F82240002038BDD325020012260200C8
:104210001F260200FCEC00E000E100E008B503F01E
:1042200083FABDE8084002F052BE0000014B186856
:1042300002F082BE20240020014B186802F03EBE2E
:104240002024002008B502F043FD08BD08B5024C4B
:1042500023689847FCE700BFC804002003680BB13F
:10426000084618477047CB68C3600BB15B681847B6
:1042700070470000044B0022C3E901221A611A6052
:10428000024ADA60704700BF382200205D42010018
:104290000346002210B503F8012B00F1110403F8C6
:1042A000012B9C42FBD1418210BD000008B542F6B3
:1042B00002110248FFF7ECFF08BD00BF4C220020AE
:1042C000C36810B52BB9054905484FF4FD7202F0DB
:1042D000EFFFBDE810401B68184700BF70260200C2
:1042E0007B260200034B1A78034B53F8223003B1AC
:1042F00018477047CC04002060220020074B1B7831
:104300005BB1074B0122C3F80823064B5A78FF2AFA
:1043100000D1FEE7044A12885A7070474DAB002066
:1043200000F00040A8AC002078AB0020F8B50546AE
:10433000064655F8044B8CB90D4F386818B14FF04C
:10434000FF31FEF7D5FE346824B9284603F054FF48
:104350002C463560386808B1FEF7E2FEAC4204D066
:10436000044905488B2202F0A3FF2046F8BD00BF98
:10437000402B0020AB260200BA260200036801226F
:104380001B6900211847036800221B691146184762
:1043900007B5019003F03CF80198012104F0C8FF33
:1043A00003B05DF804EB03F049B807B5019003F0E2
:1043B0002FF80198002104F0BBFF03B05DF804EB77
:1043C00003F03CB807B5CDE9001003F021F8DDE9B2
:1043D000001004F08BFF03B05DF804EB03F02EB87F
:1043E0007047416830B4034671B1D0E9032000F052
:1043F000010402B944B1451001EB60000CB1495908
:104400008A58996830BC104730BC704770B500F1CD
:104410004C0690F9DF2090F9DE100446304605F096
:10442000A3FAD4E939530DB9DA070ED55A1004EBC3
:104430006300DB0748BFA35894F8EC1048BF5D59F0
:1044400094F9ED2094F9EE30A847D4F8D81030460E
:1044500005F09AFB224630460249BDE8704005F05F
:1044600071BC00BFFB4701002DE9F0411F46D0F8A9
:10447000E03004460E4615462BB12849284840F244
:10448000351202F015FF274AC0E9392303681B687B
:10449000984784F8EC6084F8ED5084F8EE70042EB0
:1044A0000CD8DFE806F0160311161A004FF0FF33A0
:1044B0002A46012104F14C0005F01EFC2368204629
:1044C0005B68BDE8F04118472B464FF0FF320221F0
:1044D000F0E73B462A463146ECE70120013584F8F7
:1044E00004010AD003F0D4FC0023054694F9ED1032
:1044F000037001F091FFC4F8F05094F9EE300133ED
:10450000DCD0012003F0C4FC0022054694F9EE1033
:10451000027001F084FFC4F8F450CFE7F6260200E1
:1045200005270200694401002DE9F04198461E4B21
:1045300003601E4B436000251D4B85600446C0E9A7
:104540000555C0E907550F461646C3608584456387
:104550004564A0F848506C22294600614C300AF0AE
:104560007FF940F20113A4F8DC304FF47F43A4F844
:10457000EC30FF232046C4E93558C4E93855C4E976
:104580003E55C4F8C45084F8DE7084F8DF60C4F887
:10459000E85084F8EE30C4F8005184F80451FFF775
:1045A00035FF2046BDE8F081602702000D44010080
:1045B000E343010070B50646044656F84C3B0D46F1
:1045C0001B6898473046294605F0DEFA2368C4F890
:1045D000D85020465B68BDE8704018477FB5054657
:1045E000044655F84C6B0193CDE902213668B0477B
:1045F000DDE901322846039905F046FB23685B6834
:10460000204604B0BDE870401847000038B50546A4
:10461000044655F84C3B1B689847284605F042FC79
:1046200094F804310546C3B1D4F8F430ABB193F932
:1046300000305A1C04D112491248212202F038FEDF
:10464000012280B91F2B86BF0F4903F01F034FF0D3
:10465000A04102FA03F3C1F80835236820465B68DD
:104660009847284638BD1F2B86BF074903F01F0314
:104670004FF0A04102FA03F3C1F80C35EDE700BF9B
:1046800049270200302202000003005038B50546D9
:10469000044655F84C3B1B689847284605F022FC19
:1046A00094F80431054643B1D4F8F00004F0F0FD6D
:1046B000002814BF002505F00105236820465B682B
:1046C0009847284638BD03682DE9F34105461B6825
:1046D00016460F46984795F8DC30340103B1B6B161
:1046E00095F8DD300BB1012E11D0B8342819B8423D
:1046F00006D00190FBF7FEFD01983946FFF7B3FDA8
:104700002B685B68284602B0BDE8F0411847B83412
:1047100002F07EFE2C44FA68E36805F14C089AB179
:104720000BB903F0A9F8A74206D02046FBF7E2FD3B
:1047300039462046FFF797FD01223146404605F0F5
:1047400011FB02F07BFEDBE70BB103F0ABF8204678
:10475000FBF7D0FD0022E260EFE7000030B51B4B15
:10476000036085B000252A46694604460395FFF795
:10477000AAFF6846FBF7BEFD012269462046039565
:10478000FFF7A1FF6846FBF7B5FD94F8DC3013B9DD
:1047900094F8DD301BB104F14C0005F0C5F904F1CB
:1047A000C800FBF7A7FD04F1B800FBF7A3FD04F177
:1047B0003800FBF79FFD04F12800FBF79BFD206A02
:1047C00008B102F0CBF8204605B030BD60270200EA
:1047D00010B50446FFF7C2FF20464FF4847103F082
:1047E0006DFB204610BD4C3005F0E8BA10B54C30DA
:1047F0000C4605F021FB204610BD00EB0110B8303F
:1048000008B5C3680BB1FFF75BFD08BD036870B561
:1048100004461B680D46984794F8DC30AB422BD019
:1048200065B194F8DD304BB9A2686368511004EBB0
:104830006200D20744BF6258D358984702F0E8FD9F
:1048400005B3D4F8C4305BB104F1B800FFF738FD0C
:1048500003F012F80122002104F14C0005F082FA65
:1048600002F0ECFD84F8DC5035B994F8DD301BB96A
:1048700004F14C0005F058F9236820465B68BDE858
:10488000704018472A46294604F14C0005F06AFAA0
:10489000D4F8C430002BE3D003F004F8E0E7036859
:1048A00070B504461B680D46984794F8DD30AB425E
:1048B0002BD065B194F8DC304BB9A2686368511015
:1048C00004EB6200D20744BF6258D358984702F005
:1048D0009FFD05B3D4F8D4305BB104F1C800FFF7F5
:1048E000EFFC02F0C9FF0122114604F14C0005F073
:1048F00039FA02F0A3FD84F8DD5035B994F8DC30C4
:104900001BB904F14C0005F00FF9236820465B68E1
:10491000BDE8704018472A46012104F14C0005F01B
:1049200021FAD4F8D430002BE3D002F0BBFFE0E74B
:10493000437D10B504461BB1037D0BB102F0B2FFFD
:10494000204610BD13B5044601A802F00FF8637DA0
:1049500053B9237D0BB102F08FFF206901F0C7FF2F
:10496000C4E900010123637501A802F007F802B051
:1049700010BD37B504460D4601A801F0F7FF00232E
:104980000022C4E900236B7D4BB1286901F0AFFF21
:10499000D5E90032C01A61EB0201C4E9000101A8A7
:1049A00001F0ECFF204603B030BD30B585B00446C1
:1049B0000D4603A801F0DAFF29466846FFF7D9FF44
:1049C000D5E90210009B019A5B1840EB0202C4E992
:1049D000003203A801F0D2FF204605B030BD13B568
:1049E000044601A801F0C2FF206901F080FF002207
:1049F0000023C4E90001C4E9022301A801F0BEFFBD
:104A000002B010BDD0B5002300260027C0E9006722
:104A1000C0E902670446016102754375FFF7DFFFD5
:104A20002046D0BD10B5044601F084FF01220146A6
:104A30002046FFF7E7FF204610BD10B5044601F001
:104A400041FD002201462046FFF7DCFF204610BD55
:104A500003681B681847000010B50446074B236025
:104A600000220023C4E9022300230846A161C4E90F
:104A70000433034901F0CAFE204610BD7827020026
:104A8000514A010007B5009000F10801806901F06A
:104A9000FBFE03B05DF804FB00F10801806901F042
:104AA0000BBF002070476FF01C0070476FF01C00B8
:104AB00070476FF0150070476FF0150070470120C8
:104AC000704701207047002070470020704770B584
:104AD00011F0010405468EB204D0FFF797FD041EC5
:104AE00018BF0124F30605D52846FFF7CFFD08B10E
:104AF00044F01004204670BDA0F58470FFF7E7BFB6
:104B000008B5FFF783FE002008BDA0F58470FFF70D
:104B1000F7BF08B5FFF7C3FE002008BDA0F58470FD
:104B2000FFF7F7BF10B5034B03600446FFF716FE0F
:104B3000204610BD84270200A0F58470F2E700BF74
:104B400010B50446FFF7EEFF20464FF4867103F0E0
:104B5000B5F9204610BDA0F58470F1E72DE9F041CC
:104B600006460D461746CAB102F04FFC80F001031D
:104B700013F0FF0403D0336830461B68984705EBF9
:104B80000708454505D015F8011B3046FFF72EFEF6
:104B9000F7E71CB1336830465B6898473846BDE894
:104BA000F081A0F58470FFF7D9BF38B504460D46F3
:104BB00062B103681B6898472046FFF714FE28700F
:104BC000236820465B689847012038BD1046FCE703
:104BD000A0F58470FFF7E9BF10B50446FFF7A4FC09
:104BE000044B03F1080244332260C4F80831204624
:104BF00010BD00BF7C27020030B5056885B00446B3
:104C0000CDE9022101932D68A847DDE90132204654
:104C10000399FFF729FC23685B68204605B0BDE8CF
:104C20003040184730B5044685B004F1080502F05D
:104C3000EFFB29466846FFF716FB2846FBF75AFBB1
:104C4000E0690023C4E9053308B103F05DFB02F01D
:104C5000F5FB039B13B11B68684698476846FBF752
:104C600049FB05B030BD0000002204494260C0E9A4
:104C700005220160C2610284704700BF582802000B
:104C8000074B10B503608369044623B10549064804
:104C9000262202F00DFB0830FBF72CFB204610BD4E
:104CA00058280200252802003128020070B5044669
:104CB0000E4602F0ADFBA56965B104F10800FBF7F3
:104CC00019FB00230122636184F82020E36184F84A
:104CD0002160A36102F0B2FB2DB121462846BDE858
:104CE000704000F030B970BD08B103F08DBA02F029
:104CF0008FBB08B103F0A6BA02F0A0BB2DE9F041CA
:104D0000044686B00E46174602F082FBA56902F003
:104D100095FB35B301AD0021284603F0CFFA02F030
:104D200077FBD4E9068323B10F491048392202F0FA
:104D3000BFFAE56102F082FBB8F1000F0ED03946F0
:104D4000284603F0C3FA48B93046FFF7CDFF2046A6
:104D50000121FFF7ABFF3046FFF7CBFF284603F0FA
:104D6000D6FA06B0BDE8F081252802003F280200EF
:104D70000022C0E9012201220160027370477047DE
:104D80000346007B30B1D3E90020136898428CBF02
:104D90000020012070470123D0F800C02DE9F04326
:104DA00003FA01F11F4682EA030E1CF823500D425C
:104DB00004D005F030053AB1102D07D10133112B85
:104DC000F3D14FF0FF300FE0002DF7D05C00023C34
:104DD000D0F8088042EA040607FA06F919EA080F33
:104DE000ECD1202D02D03046BDE8F0834EEA040419
:104DF00007FA04F414EA080FF5D0DFE770B50D46A2
:104E000011462A4604461E46FFF7C5FF002802DA6F
:104E10000020207370BD21686368420801EB8201A5
:104E2000CD8849791D4406FB01510123616003FAD5
:104E300000F1A36842EAC0100B43A360C0B2E9E7E7
:104E400013460A460121FFF7D9BF13460A4600213F
:104E5000FFF7D4BF13B50A46019100210446FFF7BE
:104E6000EFFF019A0021204602B0BDE81040FFF795
:104E7000ECBF0022C0E9002270477047006870470D
:104E800000230B60436813B90160416070471960EB
:104E9000FBE703682BB11A6802B942600260002286
:104EA0001A601846704710B50468002223468B42EA
:104EB00003D083B11A461B68F9E70AB10B68136087
:104EC0008C4204BF0B68036043688B424FF00003C1
:104ED00008BF42600B6010BD10B50446FFF7C9FF64
:104EE000204610BD08B5FFF7C9FFB0FA80F04009B1
:104EF00008BD70B505462846FFF7C0FF044678B1E7
:104F000050F8043C061F9B683046984740B128463D
:104F1000FFF7BFFF54F8043C3046DB689847EAE7E8
:104F200070BD70B504460D46FFF7A8FFAC6106469C
:104F3000291D2046FFF7A4FF26B92046BDE8704092
:104F4000FFF7D7BF70BD70B505460C46FFF796FF5B
:104F5000064604B1043421462846FFF7A4FFA642C2
:104F600004D12846BDE87040FFF7C3BF70BD10B53F
:104F700004462046FFF782FF28B150F8043C04386D
:104F8000DB689847F5E710BD10B50446FFF7EFFF63
:104F90002046FFF772FF204610BD70477047036838
:104FA0009B6D184770B586B00023CDF806308DF89C
:104FB0000A300389ADF8103040F201234FF48974B0
:104FC000ADF8123040F2031390F820134268ADF8A8
:104FD0000440ADF81430022400F10A038DF80740B4
:104FE0008DF80B10039201AC05AE1D46224603CA94
:104FF000B24218605960144603F10803F6D11288D2
:105000001A80284606B070BD00487047402B020049
:1050100000487047782B020000487047442B02007C
:10502000004870478A2B020000487047702B02002E
:10503000004870475A2B0200036810B504465B6FA6
:105040009847D4F8EC0203681B6F98472368204602
:105050009B6FBDE81040184708B5D0F834332BB922
:105060000349044840F2CD6202F022F908BD00BFB6
:10507000852802009328020010B5044602F0C8F902
:10508000D4F834330133C4F834332BB9034904481A
:105090004FF4D76202F00CF910BD00BF8528020062
:1050A0009328020038B5D0F83433012B044610D1D0
:1050B0000025D4E9C93000F0010203B94AB141101A
:1050C000C4E9C95504EB60000AB16258D358984747
:1050D000EFE7D4F834332BB90649074840F2C662EB
:1050E00002F0E6F8013BC4F83433BDE8384002F082
:1050F000A5B900BF852802009328020007B5002348
:105100000249034800931A4602F0F4FA9F2802006D
:105110000E01158007B500230249034800931A4683
:1051200002F0E8FAC728020004011580036873B58D
:105130000446DB6F9847B4F8F8120B12022B25D007
:10514000032B56D0012B04D1236820461B6B9847B4
:1051500008B9002018E0236820461B6B98470678A2
:10516000122EF6D1236820461B6B98474578012DF7
:10517000EFD12368C4F804631B6B2046984784F87A
:105180000853C4F80003284602B070BD2368C9B2B2
:105190005B6B0191204698470028DAD0236801997B
:1051A0005B6B2046984703780199092BD1D123687E
:1051B00020465B6B984743780199022BC9D123683D
:1051C00020465B6B9847236885785B6B0199204686
:1051D0009847C378019945EA03252368C4F8045326
:1051E0005B6B20469847C4F80003012084F808034D
:1051F000CAE7C9B20529ACD8DFE801F0030F1923CB
:105200002D37236820469B6B98470378C4F80433F6
:1052100023689B6B20469847E5E723682046DB6BB5
:1052200098470378C4F804332368DB6BF2E72368FC
:1052300020461B6C98470378C4F8043323681B6C22
:10524000E8E7236820465B6C98470378C4F804338A
:1052500023685B6CDEE7236820469B6C98470378E5
:10526000C4F8043323689B6CD4E723682046DB6CC6
:1052700098470378C4F804332368DB6CCAE70B78DB
:10528000DB0913700B78C3F3411353700B7803F0F1
:105290001F0393704B78D370C8788B7843EA002350
:1052A000938048790B7943EA0023D380C8798B79BE
:1052B00043EA002313817047036870B504465B6FAF
:1052C0000D46984794F80C33022B05D009490A483B
:1052D00040F23D1201F0ECFF084BC4F824330023E8
:1052E000C4F82833236884F8105320469B6FBDE828
:1052F0007040184785280200E6280200BF570100C9
:1053000038B503680446DB6F984794F8083313B147
:105310000025284638BDD4F8EC0203685B6C98473A
:10532000D4F804239042F3D8D4F80013121A01449D
:10533000C4F80013C4F80423A2B994F80A53022352
:1053400084F80C3345B1236884F80A239B6E04F576
:105350003D7120469847DCE701212046FFF7ACFF6E
:105360000125D6E7D4F8EC02D4F820430368A24222
:105370001B6C28BF22469847F2E70000036813B56C
:105380000446DB6F984794F81C33012B06D80023A2
:105390000F4900931A460F4802F0ACF994F80C3309
:1053A00023B100230C4900931A46F4E794F80B3319
:1053B000032B0BD02046FFF7A3FF38B9D4F8EC023B
:1053C0000368DB6C02B0BDE81040184702B010BDA6
:1053D0009F2802000E0115801129020038B50368CC
:1053E0000446DB6F984794F80833012B3BD1D4F87F
:1053F000045335B994F809330BB901252CE084F82E
:105400000953D4F82023D4F8EC02D4F8001303682D
:10541000954228BF15462A469B6C9847D4F800331E
:10542000D4F804232B44551BC4F80033C4F80453A8
:10543000002DE2D194F80923002ADED194F80A5312
:10544000022384F80C334DB1236884F80A239B6E41
:1054500004F53D7120469847284638BD0121204675
:10546000FFF72AFFC9E70025F6E7036810B50446F1
:10547000DB6F984794F81C33012B01D8FFF73EFEF1
:1054800094F80B33032B0AD02046FFF7A7FF30B95F
:10549000D4F8EC020368BDE81040DB6C184710BD7F
:1054A000036870B504465B6F0D46984794F80C335B
:1054B000032B05D009490A484FF4C37201F0F8FEE6
:1054C000084BC4F824330023C4F82833236884F835
:1054D000105320469B6FBDE8704018478528020096
:1054E0005B2902007F62010010B503680446DB6F90
:1054F0009847012004F21D33C4F80033C4F80403B4
:1055000084F8080310BD036810B50446DB6F9847A4
:1055100094F81C33042B01BFB4F82E33A4F8FA32EC
:10552000012004F54C7303BFC4F80033C4F804032E
:1055300084F80803002010BD036810B5DB6F044633
:105540009847042384F80C33236894F8F8221B6FDF
:10555000B4F8FA1220469847012010BD036870B5D0
:1055600004465B6F0D46984794F80C33042B05D026
:1055700009490A484FF4EB7201F09AFE084BC4F84F
:1055800024330023C4F82833236884F810532046BA
:105590009B6FBDE8704018478528020087290200EC
:1055A0004F580100036810B50446DB6F984794F824
:1055B0001C33042B02D0B4F8FA328BBB94F8F632C9
:1055C000012B0FD0022B10D053BB164B01221A8097
:1055D000144BC4F8003301200223C4F8043384F8C8
:1055E000080310BD0F4B0022F1E7B4F8FA2222F0B5
:1055F0008F03ABB912F00F0F0A4902D100230B80C1
:10560000E6E7530003F01E0343EAD213023B1822DD
:1056100002FB034393F830309B07EFD50123EEE7FD
:105620000020DEE77422002010B50368044690B025
:10563000DB6F9847D4F8EC02D4F82023036869465E
:10564000DB6B984704F53D7269462046FFF717FE6D
:105650000023C4F80833C4E9C033012384F80C33B1
:10566000236811465B6E2046984710B010BD036852
:1056700010B50446DB6F984794F81C33012B01D812
:10568000FFF73CFD94F80C23012384F82C3322B956
:105690002046BDE81040FFF7C7BF84F82D3310BD8A
:1056A0002DE9F0411D46036804465B6F0F46164620
:1056B000984794F80C33012B05D00B490B4840F266
:1056C000BA2201F0F5FD0A4BC4F824330023C4F8D4
:1056D0002833236884F81073C4E9C56520469B6F9E
:1056E000BDE8F041184700BF85280200AF2902003D
:1056F000F3600100036810B50446DB6F9847B4F807
:10570000FC3293B394F8F40294F80823012825D1CD
:10571000012A06D0D4F8EC020368DB6CBDE8104027
:105720001847D4F804239A4201D9C4F80433012855
:10573000D4F8041326D18B4208D9D4F82033B1FB16
:10574000F3F203FB12120AB984F80903022384F866
:105750000B332046BDE81040FFF740BE002AD9D1E8
:10576000D4F804239A42E2D0D4E7D4F8EC02D4F877
:1057700004230368002AD0D1032184F80B139B6C07
:1057800011460DE0D4F8EC02D4F82023012384F86C
:105790000B3303688A4228BF0A461B6CD4F80013F7
:1057A000BDE81040184710B503680446DB6F984702
:1057B000002384F82D33032384F80B3310BD0368D2
:1057C00010B5DB6F04469847002284F80C2394F848
:1057D0002D2394F8103322B12046BDE81040FFF786
:1057E000E2BF33B9D4F8EC020368BDE81040DB6CCB
:1057F000184794F80B33012B0AD1D4F8EC02032399
:1058000084F80B3303689B6CBDE8104011461847C1
:10581000022B07D1D4F8EC02032384F80B3303687E
:105820001B6CF1E710BD036810B5DB6F04469847A9
:10583000002384F82C3394F80C3323B92046BDE8B8
:105840001040FFF7B0BF012384F82D3310BD03686B
:1058500010B5DB6F04469847002284F80C2394F8B7
:105860002D2394F8103322B12046BDE81040FFF7F5
:105870009ABF63B1B4F8FA32A4F82E33B4F8F83210
:1058800084F830332046BDE81040FFF733BFD4F82A
:10589000EC020368BDE81040DB6C1847036810B5E4
:1058A00004465B6F984794F8F03283B9D4F8EC0261
:1058B000036821469B689847D4F8EC0203684021AE
:1058C0009B6B98470123C4F8200384F8F0322368C7
:1058D00020469B6FBDE81040184738B50368044662
:1058E0005B6F984794F81C53236820469B6FEDB27A
:1058F00098472B1F5842584138BD036810B55B6F5D
:10590000044698472046FFF7C9FF94F8F1323BB9A7
:10591000D4F8EC0203685B699847012384F8F132FC
:10592000236820469B6FBDE8104018472DE9F04FD3
:10593000904685B002680391526F0293DDF838906B
:1059400005469047039911F0700F03D111F00F0F26
:10595000029B06D100232B492B4800931A4601F0E5
:10596000C9FE95F8F2723FB92B6828469B6F98479D
:10597000384605B0BDE8F08F4C0004F01E0444EA40
:10598000D114A61E4FF0180B0BFB065A9AF83020C4
:10599000D20705D51D491E484FF48E6201F088FCE0
:1059A000B8F5806F04D919491A4840F27142F5E7F9
:1059B000D5F8EC020268176D4246B8470746002842
:1059C000D2D0601E0BFB0050043048450BD0029033
:1059D000FAF790FCD9F80C30CAF828301BB15B6894
:1059E000029849469847182303FB065696F830302C
:1059F000A6F82C8043F0010386F83030002386F8A7
:105A00003130B1E7C7280200040115808528020063
:105A1000D2290200F4290200D0F8EC0203685B6B83
:105A200018470000F8B50F461A49044640F81C1BF9
:105A30000025064604F53B71F5601836B142FBD1EE
:105A4000E380BDF818302381A28000214FF4347226
:105A500008F006FF2822002104F53D7008F000FF41
:105A60000123C4E9C855C4E9CA5584F80C53C4F8E5
:105A7000EC72A4F8F05284F8F252C4F8345384F86B
:105A8000305384F81C3384F81D5384F81E53204689
:105A9000F8BD00BFC02A020038B503685B6F0D4631
:105AA000044698472B071FBF6A0002F01E0242EA15
:105AB000D513023B1BBF182202FB0343D4F820532B
:105AC0009D8D236820469B6F9847284638BD00006F
:105AD0000368F7B55B6F0E460546984736F08F07AB
